:100000000C9446000C9465000C9465000C946500FB
:100010000C9465000C9465000C9465000C946500CC
:100020000C9465000C9465000C9465000C946500BC
:100030000C9465000C9465000C9465000C946500AC
:100040000C9465000C9465000C9465000C9465009C
:100050000C9465000C9465000C9465000C9465008C
:100060000C9465000C9465000C9465000C9465007C
:100070000C9465000C9465000C9465000C9465006C
:100080000C9465000C9465000C94650011241FBE4F
:10009000CFEFD0E4DEBFCDBF11E0A0E0B1E0EEEBEA
:1000A000F4E000E00BBF02C007900D92A630B1074C
:1000B000D9F711E0A6E0B1E001C01D92AE30B10762
:1000C000E1F70E943D020C945D020C94000040E0B8
:1000D00050E00CC000002F5F3F4F02C020E030E036
:1000E000273063E03607B4F34F5F5F4F4817590777
:1000F000ACF308955E9888B95F9A00005F9882E03B
:1001000090E00E946700089581E00E947A000895BF
:10011000813120F481580E947A00089581550E940F
:100120007A00089584E690E00E94670088E30E94C8
:100130007A0086E00E947A008FE00E947A0081E0D7
:100140000E947A008AE090E00E94670008955E9A1B
:1001500088B95F9A00005F9881E090E00E94670094
:100160000895EF92FF920F931F93CF93DF93182F71
:10017000EB010E9484000EC001E0010F812F0E945C
:1001800088007E018FEFE81AF80A88810E94A70094
:10019000102FE70188818111EFCFDF91CF911F915F
:1001A0000F91FF90EF9008958BE0809381008DE791
:1001B00090E0909389008093880082E080936F00A4
:1001C00010928500109284008091000190910101AD
:1001D000A0910201B0910301809306019093070161
:1001E000A0930801B09309018FB780688FBF08956D
:1001F00010928100089581E080930A010895809112
:10020000060190910701A0910801B09109010197A1
:10021000A109B1098093060190930701A0930801F9
:10022000B0930901892B8A2B8B2B91F40E94FB0040
:100230008091000190910101A0910201B091030110
:100240008093060190930701A0930801B0930901E0
:1002500008956093000170930101809302019093CF
:100260000301609306017093070180930801909346
:100270000901089580910C0190910D018230910542
:1002800009F454C028F4009769F00197D9F0B4C07C
:100290008430910509F458C008F44FC0059709F45B
:1002A00096C0AAC081E00E94880080910B0190E076
:1002B000C0960E94A70081E090E090930D0180938A
:1002C0000C019AC080B190E0809590958370992739
:1002D000019739F482E090E090930D0180930C0136
:1002E0008BC080B190E0809590958370992702979C
:1002F00039F483E090E090930D0180930C017CC071
:1003000080B190E08095909583709927039739F498
:1003100085E090E090930D0180930C016DC081E029
:1003200090E090930D0180930C0166C084E090E012
:1003300090930D0180930C015FC084E090E0909356
:100340000D0180930C0158C080B190E0809590958C
:1003500083709927019739F482E090E090930D0122
:1003600080930C0149C080B190E080959095837096
:100370009927029739F483E090E090930D018093E0
:100380000C013AC080B190E08095909583709927D8
:10039000039739F485E090E090930D0180930C0170
:1003A0002BC080B190E08095909583709927892B20
:1003B00039F481E090E090930D0180930C011CC012
:1003C00084E090E090930D0180930C0115C080B102
:1003D00090E08095909583709927892B39F481E07E
:1003E00090E090930D0180930C0106C085E090E0B1
:1003F00090930D0180930C0180910C0190910D015F
:1004000083309105D1F08530910559F10297A1F51E
:1004100080910B01893020F089E080930B0103C0AB
:100420008F5F80930B0181E00E94880080910B0117
:1004300090E0C0960E94A700089580910B01811161
:1004400003C010920B0103C0815080930B0181E027
:100450000E94880080910B0190E0C0960E94A70046
:10046000089510920B0181E00E94880080910B0199
:1004700090E0C0960E94A700089511B88FEF82B94E
:1004800087B918B88AB91BB880B180B10E949200B0
:1004900064EF71E080E090E00E9429010E94D400A6
:1004A00010920D0110920C010E943A0180910A01F4
:0E04B0008823E1F310920A01F7CFF894FFCFF2
:0604BE0001000000300007
:00000001FF
